{
  "address": "0x0B3F0F454aA0601C6C7Ad82D6b683247cb64eD20",
  "abi": [
    {
      "inputs": [
        {
          "internalType": "address",
          "name": "exampleExternalContractAddress",
          "type": "address"
        }
      ],
      "stateMutability": "nonpayable",
      "type": "constructor"
    },
    {
      "anonymous": false,
      "inputs": [
        {
          "indexed": false,
          "internalType": "address",
          "name": "",
          "type": "address"
        },
        {
          "indexed": false,
          "internalType": "uint256",
          "name": "",
          "type": "uint256"
        }
      ],
      "name": "Stake",
      "type": "event"
    },
    {
      "inputs": [
        {
          "internalType": "address",
          "name": "",
          "type": "address"
        }
      ],
      "name": "balances",
      "outputs": [
        {
          "internalType": "uint256",
          "name": "",
          "type": "uint256"
        }
      ],
      "stateMutability": "view",
      "type": "function"
    },
    {
      "inputs": [],
      "name": "deadline",
      "outputs": [
        {
          "internalType": "uint256",
          "name": "",
          "type": "uint256"
        }
      ],
      "stateMutability": "view",
      "type": "function"
    },
    {
      "inputs": [],
      "name": "exampleExternalContract",
      "outputs": [
        {
          "internalType": "contract ExampleExternalContract",
          "name": "",
          "type": "address"
        }
      ],
      "stateMutability": "view",
      "type": "function"
    },
    {
      "inputs": [],
      "name": "execute",
      "outputs": [],
      "stateMutability": "nonpayable",
      "type": "function"
    },
    {
      "inputs": [],
      "name": "openForWithdraw",
      "outputs": [
        {
          "internalType": "bool",
          "name": "",
          "type": "bool"
        }
      ],
      "stateMutability": "view",
      "type": "function"
    },
    {
      "inputs": [],
      "name": "stake",
      "outputs": [],
      "stateMutability": "payable",
      "type": "function"
    },
    {
      "inputs": [],
      "name": "threshold",
      "outputs": [
        {
          "internalType": "uint256",
          "name": "",
          "type": "uint256"
        }
      ],
      "stateMutability": "view",
      "type": "function"
    },
    {
      "inputs": [],
      "name": "timeLeft",
      "outputs": [
        {
          "internalType": "uint256",
          "name": "",
          "type": "uint256"
        }
      ],
      "stateMutability": "view",
      "type": "function"
    },
    {
      "inputs": [],
      "name": "withdraw",
      "outputs": [],
      "stateMutability": "nonpayable",
      "type": "function"
    },
    {
      "stateMutability": "payable",
      "type": "receive"
    }
  ],
  "transactionHash": "0xdc5254264dbfbff0f46f1723a9003fec60d41d141b3db975608eee317e652ebe",
  "args": [
    "0xA150C6aB702C3Bc3815D613b1B26c3165e9B277B"
  ],
  "numDeployments": 1,
  "solcInputHash": "03d56f89aeb2959a8d2fc98709b8cb97",
  "bytecode": "0x6080604052670de0b6b3a764000060025534801561001c57600080fd5b506040516105a63803806105a683398101604081905261003b91610071565b60038054610100600160a81b0319166101006001600160a01b03841602179055610068426203f4806100a1565b600155506100c8565b60006020828403121561008357600080fd5b81516001600160a01b038116811461009a57600080fd5b9392505050565b808201808211156100c257634e487b7160e01b600052601160045260246000fd5b92915050565b6104cf806100d76000396000f3fe60806040526004361061008a5760003560e01c80633ccfd60b116100595780633ccfd60b1461015857806342cde4e81461016d57806361461954146101835780639876a643146101985780639f75f227146101c257600080fd5b80631300a6d1146100e557806327e235e31461010d57806329dcb0cf1461013a5780633a4b66f11461015057600080fd5b366100e057306001600160a01b0316633a4b66f16040518163ffffffff1660e01b8152600401600060405180830381600087803b1580156100ca57600080fd5b505af11580156100de573d6000803e3d6000fd5b005b600080fd5b3480156100f157600080fd5b506100fa6101ff565b6040519081526020015b60405180910390f35b34801561011957600080fd5b506100fa610128366004610427565b60006020819052908152604090205481565b34801561014657600080fd5b506100fa60015481565b6100de610223565b34801561016457600080fd5b506100de6102ca565b34801561017957600080fd5b506100fa60025481565b34801561018f57600080fd5b506100de610359565b3480156101a457600080fd5b506003546101b29060ff1681565b6040519015158152602001610104565b3480156101ce57600080fd5b506003546101e79061010090046001600160a01b031681565b6040516001600160a01b039091168152602001610104565b600060015442106102105750600090565b4260015461021e919061046d565b905090565b600154421061026c5760405162461bcd60e51b815260206004820152601060248201526f191958591b1a5b9948195e1c1a5c995960821b60448201526064015b60405180910390fd5b336000908152602081905260408120805434929061028b908490610486565b9091555050604080513381523460208201527febedb8b3c678666e7f36970bc8f57abf6d8fa2e828c0da91ea5b75bf68ed101a910160405180910390a1565b60035460ff166103145760405162461bcd60e51b81526020600482015260156024820152746e6f74206f70656e20666f7220776974686472617760581b6044820152606401610263565b33600081815260208190526040808220805490839055905190929183156108fc02918491818181858888f19350505050158015610355573d6000803e3d6000fd5b5050565b6001544210156103a45760405162461bcd60e51b8152602060048201526016602482015275191958591b1a5b99481b9bdd0818dbdb5c1b195d195960521b6044820152606401610263565b600254471061041857600360019054906101000a90046001600160a01b03166001600160a01b031663522e1177476040518263ffffffff1660e01b81526004016000604051808303818588803b1580156103fd57600080fd5b505af1158015610411573d6000803e3d6000fd5b5050505050565b6003805460ff19166001179055565b60006020828403121561043957600080fd5b81356001600160a01b038116811461045057600080fd5b9392505050565b634e487b7160e01b600052601160045260246000fd5b8181038181111561048057610480610457565b92915050565b808201808211156104805761048061045756fea2646970667358221220fee9d8a5a74b8dc116e0a9b807edf7d13d7f825fc30b66426b8c59cc733897ff64736f6c63430008140033",
  "devdoc": {
    "kind": "dev",
    "methods": {},
    "version": 1
  },
  "userdoc": {
    "kind": "user",
    "methods": {},
    "version": 1
  },
  "storageLayout": {
    "storage": [
      {
        "astId": 20,
        "contract": "contracts/Staker.sol:Staker",
        "label": "balances",
        "offset": 0,
        "slot": "0",
        "type": "t_mapping(t_address,t_uint256)"
      },
      {
        "astId": 22,
        "contract": "contracts/Staker.sol:Staker",
        "label": "deadline",
        "offset": 0,
        "slot": "1",
        "type": "t_uint256"
      },
      {
        "astId": 25,
        "contract": "contracts/Staker.sol:Staker",
        "label": "threshold",
        "offset": 0,
        "slot": "2",
        "type": "t_uint256"
      },
      {
        "astId": 27,
        "contract": "contracts/Staker.sol:Staker",
        "label": "openForWithdraw",
        "offset": 0,
        "slot": "3",
        "type": "t_bool"
      },
      {
        "astId": 36,
        "contract": "contracts/Staker.sol:Staker",
        "label": "exampleExternalContract",
        "offset": 1,
        "slot": "3",
        "type": "t_contract(ExampleExternalContract)12"
      }
    ],
    "types": {
      "t_address": {
        "encoding": "inplace",
        "label": "address",
        "numberOfBytes": "20"
      },
      "t_bool": {
        "encoding": "inplace",
        "label": "bool",
        "numberOfBytes": "1"
      },
      "t_contract(ExampleExternalContract)12": {
        "encoding": "inplace",
        "label": "contract ExampleExternalContract",
        "numberOfBytes": "20"
      },
      "t_mapping(t_address,t_uint256)": {
        "encoding": "mapping",
        "key": "t_address",
        "label": "mapping(address => uint256)",
        "numberOfBytes": "32",
        "value": "t_uint256"
      },
      "t_uint256": {
        "encoding": "inplace",
        "label": "uint256",
        "numberOfBytes": "32"
      }
    }
  }
}